{
  "_format": "hh-sol-artifact-1",
  "contractName": "SoulboundVisitCardERC721",
  "sourceName": "contracts/SoulboundVisitCardERC721.sol",
  "abi": [
    {
      "inputs": [],
      "stateMutability": "nonpayable",
      "type": "constructor"
    },
    {
      "inputs": [
        {
          "internalType": "address",
          "name": "sender",
          "type": "address"
        },
        {
          "internalType": "uint256",
          "name": "tokenId",
          "type": "uint256"
        },
        {
          "internalType": "address",
          "name": "owner",
          "type": "address"
        }
      ],
      "name": "ERC721IncorrectOwner",
      "type": "error"
    },
    {
      "inputs": [
        {
          "internalType": "address",
          "name": "operator",
          "type": "address"
        },
        {
          "internalType": "uint256",
          "name": "tokenId",
          "type": "uint256"
        }
      ],
      "name": "ERC721InsufficientApproval",
      "type": "error"
    },
    {
      "inputs": [
        {
          "internalType": "address",
          "name": "approver",
          "type": "address"
        }
      ],
      "name": "ERC721InvalidApprover",
      "type": "error"
    },
    {
      "inputs": [
        {
          "internalType": "address",
          "name": "operator",
          "type": "address"
        }
      ],
      "name": "ERC721InvalidOperator",
      "type": "error"
    },
    {
      "inputs": [
        {
          "internalType": "address",
          "name": "owner",
          "type": "address"
        }
      ],
      "name": "ERC721InvalidOwner",
      "type": "error"
    },
    {
      "inputs": [
        {
          "internalType": "address",
          "name": "receiver",
          "type": "address"
        }
      ],
      "name": "ERC721InvalidReceiver",
      "type": "error"
    },
    {
      "inputs": [
        {
          "internalType": "address",
          "name": "sender",
          "type": "address"
        }
      ],
      "name": "ERC721InvalidSender",
      "type": "error"
    },
    {
      "inputs": [
        {
          "internalType": "uint256",
          "name": "tokenId",
          "type": "uint256"
        }
      ],
      "name": "ERC721NonexistentToken",
      "type": "error"
    },
    {
      "inputs": [
        {
          "internalType": "address",
          "name": "owner",
          "type": "address"
        }
      ],
      "name": "OwnableInvalidOwner",
      "type": "error"
    },
    {
      "inputs": [
        {
          "internalType": "address",
          "name": "account",
          "type": "address"
        }
      ],
      "name": "OwnableUnauthorizedAccount",
      "type": "error"
    },
    {
      "anonymous": false,
      "inputs": [
        {
          "indexed": true,
          "internalType": "address",
          "name": "owner",
          "type": "address"
        },
        {
          "indexed": true,
          "internalType": "address",
          "name": "approved",
          "type": "address"
        },
        {
          "indexed": true,
          "internalType": "uint256",
          "name": "tokenId",
          "type": "uint256"
        }
      ],
      "name": "Approval",
      "type": "event"
    },
    {
      "anonymous": false,
      "inputs": [
        {
          "indexed": true,
          "internalType": "address",
          "name": "owner",
          "type": "address"
        },
        {
          "indexed": true,
          "internalType": "address",
          "name": "operator",
          "type": "address"
        },
        {
          "indexed": false,
          "internalType": "bool",
          "name": "approved",
          "type": "bool"
        }
      ],
      "name": "ApprovalForAll",
      "type": "event"
    },
    {
      "anonymous": false,
      "inputs": [
        {
          "indexed": false,
          "internalType": "uint256",
          "name": "_fromTokenId",
          "type": "uint256"
        },
        {
          "indexed": false,
          "internalType": "uint256",
          "name": "_toTokenId",
          "type": "uint256"
        }
      ],
      "name": "BatchMetadataUpdate",
      "type": "event"
    },
    {
      "anonymous": false,
      "inputs": [
        {
          "indexed": false,
          "internalType": "uint256",
          "name": "_tokenId",
          "type": "uint256"
        }
      ],
      "name": "MetadataUpdate",
      "type": "event"
    },
    {
      "anonymous": false,
      "inputs": [
        {
          "indexed": true,
          "internalType": "address",
          "name": "previousOwner",
          "type": "address"
        },
        {
          "indexed": true,
          "internalType": "address",
          "name": "newOwner",
          "type": "address"
        }
      ],
      "name": "OwnershipTransferred",
      "type": "event"
    },
    {
      "anonymous": false,
      "inputs": [
        {
          "indexed": true,
          "internalType": "address",
          "name": "from",
          "type": "address"
        },
        {
          "indexed": true,
          "internalType": "address",
          "name": "to",
          "type": "address"
        },
        {
          "indexed": true,
          "internalType": "uint256",
          "name": "tokenId",
          "type": "uint256"
        }
      ],
      "name": "Transfer",
      "type": "event"
    },
    {
      "inputs": [
        {
          "internalType": "address",
          "name": "",
          "type": "address"
        },
        {
          "internalType": "uint256",
          "name": "",
          "type": "uint256"
        }
      ],
      "name": "approve",
      "outputs": [],
      "stateMutability": "pure",
      "type": "function"
    },
    {
      "inputs": [
        {
          "internalType": "address",
          "name": "owner",
          "type": "address"
        }
      ],
      "name": "balanceOf",
      "outputs": [
        {
          "internalType": "uint256",
          "name": "",
          "type": "uint256"
        }
      ],
      "stateMutability": "view",
      "type": "function"
    },
    {
      "inputs": [
        {
          "internalType": "uint256",
          "name": "tokenId",
          "type": "uint256"
        }
      ],
      "name": "getApproved",
      "outputs": [
        {
          "internalType": "address",
          "name": "",
          "type": "address"
        }
      ],
      "stateMutability": "view",
      "type": "function"
    },
    {
      "inputs": [
        {
          "internalType": "address",
          "name": "",
          "type": "address"
        }
      ],
      "name": "hasVisitCard",
      "outputs": [
        {
          "internalType": "bool",
          "name": "",
          "type": "bool"
        }
      ],
      "stateMutability": "view",
      "type": "function"
    },
    {
      "inputs": [
        {
          "internalType": "address",
          "name": "owner",
          "type": "address"
        },
        {
          "internalType": "address",
          "name": "operator",
          "type": "address"
        }
      ],
      "name": "isApprovedForAll",
      "outputs": [
        {
          "internalType": "bool",
          "name": "",
          "type": "bool"
        }
      ],
      "stateMutability": "view",
      "type": "function"
    },
    {
      "inputs": [
        {
          "internalType": "address",
          "name": "student",
          "type": "address"
        },
        {
          "internalType": "string",
          "name": "tokenUri",
          "type": "string"
        }
      ],
      "name": "mintVisitCard",
      "outputs": [],
      "stateMutability": "nonpayable",
      "type": "function"
    },
    {
      "inputs": [],
      "name": "name",
      "outputs": [
        {
          "internalType": "string",
          "name": "",
          "type": "string"
        }
      ],
      "stateMutability": "view",
      "type": "function"
    },
    {
      "inputs": [],
      "name": "owner",
      "outputs": [
        {
          "internalType": "address",
          "name": "",
          "type": "address"
        }
      ],
      "stateMutability": "view",
      "type": "function"
    },
    {
      "inputs": [
        {
          "internalType": "uint256",
          "name": "tokenId",
          "type": "uint256"
        }
      ],
      "name": "ownerOf",
      "outputs": [
        {
          "internalType": "address",
          "name": "",
          "type": "address"
        }
      ],
      "stateMutability": "view",
      "type": "function"
    },
    {
      "inputs": [],
      "name": "renounceOwnership",
      "outputs": [],
      "stateMutability": "nonpayable",
      "type": "function"
    },
    {
      "inputs": [
        {
          "internalType": "address",
          "name": "from",
          "type": "address"
        },
        {
          "internalType": "address",
          "name": "to",
          "type": "address"
        },
        {
          "internalType": "uint256",
          "name": "tokenId",
          "type": "uint256"
        }
      ],
      "name": "safeTransferFrom",
      "outputs": [],
      "stateMutability": "nonpayable",
      "type": "function"
    },
    {
      "inputs": [
        {
          "internalType": "address",
          "name": "",
          "type": "address"
        },
        {
          "internalType": "address",
          "name": "",
          "type": "address"
        },
        {
          "internalType": "uint256",
          "name": "",
          "type": "uint256"
        },
        {
          "internalType": "bytes",
          "name": "",
          "type": "bytes"
        }
      ],
      "name": "safeTransferFrom",
      "outputs": [],
      "stateMutability": "pure",
      "type": "function"
    },
    {
      "inputs": [
        {
          "internalType": "address",
          "name": "",
          "type": "address"
        },
        {
          "internalType": "bool",
          "name": "",
          "type": "bool"
        }
      ],
      "name": "setApprovalForAll",
      "outputs": [],
      "stateMutability": "pure",
      "type": "function"
    },
    {
      "inputs": [
        {
          "internalType": "bytes4",
          "name": "interfaceId",
          "type": "bytes4"
        }
      ],
      "name": "supportsInterface",
      "outputs": [
        {
          "internalType": "bool",
          "name": "",
          "type": "bool"
        }
      ],
      "stateMutability": "view",
      "type": "function"
    },
    {
      "inputs": [],
      "name": "symbol",
      "outputs": [
        {
          "internalType": "string",
          "name": "",
          "type": "string"
        }
      ],
      "stateMutability": "view",
      "type": "function"
    },
    {
      "inputs": [
        {
          "internalType": "uint256",
          "name": "tokenId",
          "type": "uint256"
        }
      ],
      "name": "tokenURI",
      "outputs": [
        {
          "internalType": "string",
          "name": "",
          "type": "string"
        }
      ],
      "stateMutability": "view",
      "type": "function"
    },
    {
      "inputs": [
        {
          "internalType": "address",
          "name": "",
          "type": "address"
        },
        {
          "internalType": "address",
          "name": "",
          "type": "address"
        },
        {
          "internalType": "uint256",
          "name": "",
          "type": "uint256"
        }
      ],
      "name": "transferFrom",
      "outputs": [],
      "stateMutability": "pure",
      "type": "function"
    },
    {
      "inputs": [
        {
          "internalType": "address",
          "name": "newOwner",
          "type": "address"
        }
      ],
      "name": "transferOwnership",
      "outputs": [],
      "stateMutability": "nonpayable",
      "type": "function"
    }
  ],
  "bytecode": "0x608060405260016008553480156200001657600080fd5b50336040518060400160405280601281526020017f53747564656e74205669736974204361726400000000000000000000000000008152506040518060400160405280600381526020017f5356430000000000000000000000000000000000000000000000000000000000815250816000908162000095919062000477565b508060019081620000a7919062000477565b505050600073ffffffffffffffffffffffffffffffffffffffff168173ffffffffffffffffffffffffffffffffffffffff16036200011f5760006040517f1e4fbdf7000000000000000000000000000000000000000000000000000000008152600401620001169190620005a3565b60405180910390fd5b62000130816200013760201b60201c565b50620005c0565b6000600760009054906101000a900473ffffffffffffffffffffffffffffffffffffffff16905081600760006101000a81548173ffffffffffffffffffffffffffffffffffffffff021916908373ffffffffffffffffffffffffffffffffffffffff1602179055508173ffffffffffffffffffffffffffffffffffffffff168173ffffffffffffffffffffffffffffffffffffffff167f8be0079c531659141344cd1fd0a4f28419497f9722a3daafe3b4186f6b6457e060405160405180910390a35050565b600081519050919050565b7f4e487b7100000000000000000000000000000000000000000000000000000000600052604160045260246000fd5b7f4e487b7100000000000000000000000000000000000000000000000000000000600052602260045260246000fd5b600060028204905060018216806200027f57607f821691505b60208210810362000295576200029462000237565b5b50919050565b60008190508160005260206000209050919050565b60006020601f8301049050919050565b600082821b905092915050565b600060088302620002ff7fffffffffffffffffffffffffffffffffffffffffffffffffffffffffffffffff82620002c0565b6200030b8683620002c0565b95508019841693508086168417925050509392505050565b6000819050919050565b6000819050919050565b600062000358620003526200034c8462000323565b6200032d565b62000323565b9050919050565b6000819050919050565b620003748362000337565b6200038c62000383826200035f565b848454620002cd565b825550505050565b600090565b620003a362000394565b620003b081848462000369565b505050565b5b81811015620003d857620003cc60008262000399565b600181019050620003b6565b5050565b601f8211156200042757620003f1816200029b565b620003fc84620002b0565b810160208510156200040c578190505b620004246200041b85620002b0565b830182620003b5565b50505b505050565b600082821c905092915050565b60006200044c600019846008026200042c565b1980831691505092915050565b600062000467838362000439565b9150826002028217905092915050565b6200048282620001fd565b67ffffffffffffffff8111156200049e576200049d62000208565b5b620004aa825462000266565b620004b7828285620003dc565b600060209050601f831160018114620004ef5760008415620004da578287015190505b620004e6858262000459565b86555062000556565b601f198416620004ff866200029b565b60005b82811015620005295784890151825560018201915060208501945060208101905062000502565b8683101562000549578489015162000545601f89168262000439565b8355505b6001600288020188555050505b505050505050565b600073ffffffffffffffffffffffffffffffffffffffff82169050919050565b60006200058b826200055e565b9050919050565b6200059d816200057e565b82525050565b6000602082019050620005ba600083018462000592565b92915050565b6127a680620005d06000396000f3fe608060405234801561001057600080fd5b50600436106101165760003560e01c8063715018a6116100a2578063a22cb46511610071578063a22cb465146102df578063b88d4fde146102fb578063c87b56dd14610317578063e985e9c514610347578063f2fde38b1461037757610116565b8063715018a6146102695780638da5cb5b146102735780639275c9eb1461029157806395d89b41146102c157610116565b806323b872dd116100e957806323b872dd146101b5578063294133c1146101d157806342842e0e146101ed5780636352211e1461020957806370a082311461023957610116565b806301ffc9a71461011b57806306fdde031461014b578063081812fc14610169578063095ea7b314610199575b600080fd5b61013560048036038101906101309190611a85565b610393565b6040516101429190611acd565b60405180910390f35b6101536103f4565b6040516101609190611b78565b60405180910390f35b610183600480360381019061017e9190611bd0565b610486565b6040516101909190611c3e565b60405180910390f35b6101b360048036038101906101ae9190611c85565b6104a2565b005b6101cf60048036038101906101ca9190611cc5565b6104dd565b005b6101eb60048036038101906101e69190611e4d565b610518565b005b61020760048036038101906102029190611cc5565b6106ac565b005b610223600480360381019061021e9190611bd0565b6106cc565b6040516102309190611c3e565b60405180910390f35b610253600480360381019061024e9190611ea9565b6106de565b6040516102609190611ee5565b60405180910390f35b610271610798565b005b61027b6107ac565b6040516102889190611c3e565b60405180910390f35b6102ab60048036038101906102a69190611ea9565b6107d6565b6040516102b89190611acd565b60405180910390f35b6102c96107f6565b6040516102d69190611b78565b60405180910390f35b6102f960048036038101906102f49190611f2c565b610888565b005b6103156004803603810190610310919061200d565b6108c3565b005b610331600480360381019061032c9190611bd0565b6108fe565b60405161033e9190611b78565b60405180910390f35b610361600480360381019061035c9190612090565b610a11565b60405161036e9190611acd565b60405180910390f35b610391600480360381019061038c9190611ea9565b610aa5565b005b6000634906490660e01b7bffffffffffffffffffffffffffffffffffffffffffffffffffffffff1916827bffffffffffffffffffffffffffffffffffffffffffffffffffffffff191614806103ed57506103ec82610b2b565b5b9050919050565b606060008054610403906120ff565b80601f016020809104026020016040519081016040528092919081815260200182805461042f906120ff565b801561047c5780601f106104515761010080835404028352916020019161047c565b820191906000526020600020905b81548152906001019060200180831161045f57829003601f168201915b5050505050905090565b600061049182610c0d565b5061049b82610c95565b9050919050565b6040517f08c379a00000000000000000000000000000000000000000000000000000000081526004016104d49061217c565b60405180910390fd5b6040517f08c379a000000000000000000000000000000000000000000000000000000000815260040161050f906121e8565b60405180910390fd5b610520610cd2565b600073ffffffffffffffffffffffffffffffffffffffff168273ffffffffffffffffffffffffffffffffffffffff160361058f576040517f08c379a000000000000000000000000000000000000000000000000000000000815260040161058690612254565b60405180910390fd5b600960008373ffffffffffffffffffffffffffffffffffffffff1673ffffffffffffffffffffffffffffffffffffffff16815260200190815260200160002060009054906101000a900460ff161561061c576040517f08c379a0000000000000000000000000000000000000000000000000000000008152600401610613906122c0565b60405180910390fd5b60006008549050600860008154809291906106369061230f565b91905055506001600960008573ffffffffffffffffffffffffffffffffffffffff1673ffffffffffffffffffffffffffffffffffffffff16815260200190815260200160002060006101000a81548160ff02191690831515021790555061069d8382610d59565b6106a78183610d77565b505050565b6106c7838383604051806020016040528060008152506108c3565b505050565b60006106d782610c0d565b9050919050565b60008073ffffffffffffffffffffffffffffffffffffffff168273ffffffffffffffffffffffffffffffffffffffff16036107515760006040517f89c62b640000000000000000000000000000000000000000000000000000000081526004016107489190611c3e565b60405180910390fd5b600360008373ffffffffffffffffffffffffffffffffffffffff1673ffffffffffffffffffffffffffffffffffffffff168152602001908152602001600020549050919050565b6107a0610cd2565b6107aa6000610dd3565b565b6000600760009054906101000a900473ffffffffffffffffffffffffffffffffffffffff16905090565b60096020528060005260406000206000915054906101000a900460ff1681565b606060018054610805906120ff565b80601f0160208091040260200160405190810160405280929190818152602001828054610831906120ff565b801561087e5780601f106108535761010080835404028352916020019161087e565b820191906000526020600020905b81548152906001019060200180831161086157829003601f168201915b5050505050905090565b6040517f08c379a00000000000000000000000000000000000000000000000000000000081526004016108ba9061217c565b60405180910390fd5b6040517f08c379a00000000000000000000000000000000000000000000000000000000081526004016108f5906121e8565b60405180910390fd5b606061090982610c0d565b50600060066000848152602001908152602001600020805461092a906120ff565b80601f0160208091040260200160405190810160405280929190818152602001828054610956906120ff565b80156109a35780601f10610978576101008083540402835291602001916109a3565b820191906000526020600020905b81548152906001019060200180831161098657829003601f168201915b5050505050905060006109b4610e99565b905060008151036109c9578192505050610a0c565b6000825111156109fe5780826040516020016109e6929190612393565b60405160208183030381529060405292505050610a0c565b610a0784610eb0565b925050505b919050565b6000600560008473ffffffffffffffffffffffffffffffffffffffff1673ffffffffffffffffffffffffffffffffffffffff16815260200190815260200160002060008373ffffffffffffffffffffffffffffffffffffffff1673ffffffffffffffffffffffffffffffffffffffff16815260200190815260200160002060009054906101000a900460ff16905092915050565b610aad610cd2565b600073ffffffffffffffffffffffffffffffffffffffff168173ffffffffffffffffffffffffffffffffffffffff1603610b1f5760006040517f1e4fbdf7000000000000000000000000000000000000000000000000000000008152600401610b169190611c3e565b60405180910390fd5b610b2881610dd3565b50565b60007f80ac58cd000000000000000000000000000000000000000000000000000000007bffffffffffffffffffffffffffffffffffffffffffffffffffffffff1916827bffffffffffffffffffffffffffffffffffffffffffffffffffffffff19161480610bf657507f5b5e139f000000000000000000000000000000000000000000000000000000007bffffffffffffffffffffffffffffffffffffffffffffffffffffffff1916827bffffffffffffffffffffffffffffffffffffffffffffffffffffffff1916145b80610c065750610c0582610f19565b5b9050919050565b600080610c1983610f83565b9050600073ffffffffffffffffffffffffffffffffffffffff168173ffffffffffffffffffffffffffffffffffffffff1603610c8c57826040517f7e273289000000000000000000000000000000000000000000000000000000008152600401610c839190611ee5565b60405180910390fd5b80915050919050565b60006004600083815260200190815260200160002060009054906101000a900473ffffffffffffffffffffffffffffffffffffffff169050919050565b610cda610fc0565b73ffffffffffffffffffffffffffffffffffffffff16610cf86107ac565b73ffffffffffffffffffffffffffffffffffffffff1614610d5757610d1b610fc0565b6040517f118cdaa7000000000000000000000000000000000000000000000000000000008152600401610d4e9190611c3e565b60405180910390fd5b565b610d73828260405180602001604052806000815250610fc8565b5050565b80600660008481526020019081526020016000209081610d979190612563565b507ff8e1a15aba9398e019f0b49df1a4fde98ee17ae345cb5f6b5e2c27f5033e8ce782604051610dc79190611ee5565b60405180910390a15050565b6000600760009054906101000a900473ffffffffffffffffffffffffffffffffffffffff16905081600760006101000a81548173ffffffffffffffffffffffffffffffffffffffff021916908373ffffffffffffffffffffffffffffffffffffffff1602179055508173ffffffffffffffffffffffffffffffffffffffff168173ffffffffffffffffffffffffffffffffffffffff167f8be0079c531659141344cd1fd0a4f28419497f9722a3daafe3b4186f6b6457e060405160405180910390a35050565b606060405180602001604052806000815250905090565b6060610ebb82610c0d565b506000610ec6610e99565b90506000815111610ee65760405180602001604052806000815250610f11565b80610ef084610fe4565b604051602001610f01929190612393565b6040516020818303038152906040525b915050919050565b60007f01ffc9a7000000000000000000000000000000000000000000000000000000007bffffffffffffffffffffffffffffffffffffffffffffffffffffffff1916827bffffffffffffffffffffffffffffffffffffffffffffffffffffffff1916149050919050565b60006002600083815260200190815260200160002060009054906101000a900473ffffffffffffffffffffffffffffffffffffffff169050919050565b600033905090565b610fd283836110b2565b610fdf60008484846111ab565b505050565b606060006001610ff384611362565b01905060008167ffffffffffffffff81111561101257611011611d22565b5b6040519080825280601f01601f1916602001820160405280156110445781602001600182028036833780820191505090505b509050600082602001820190505b6001156110a7578080600190039150507f3031323334353637383961626364656600000000000000000000000000000000600a86061a8153600a858161109b5761109a612635565b5b04945060008503611052575b819350505050919050565b600073ffffffffffffffffffffffffffffffffffffffff168273ffffffffffffffffffffffffffffffffffffffff16036111245760006040517f64a0ae9200000000000000000000000000000000000000000000000000000000815260040161111b9190611c3e565b60405180910390fd5b6000611132838360006114b5565b9050600073ffffffffffffffffffffffffffffffffffffffff168173ffffffffffffffffffffffffffffffffffffffff16146111a65760006040517f73c6ac6e00000000000000000000000000000000000000000000000000000000815260040161119d9190611c3e565b60405180910390fd5b505050565b60008373ffffffffffffffffffffffffffffffffffffffff163b111561135c578273ffffffffffffffffffffffffffffffffffffffff1663150b7a026111ef610fc0565b8685856040518563ffffffff1660e01b815260040161121194939291906126b9565b6020604051808303816000875af192505050801561124d57506040513d601f19601f8201168201806040525081019061124a919061271a565b60015b6112d1573d806000811461127d576040519150601f19603f3d011682016040523d82523d6000602084013e611282565b606091505b5060008151036112c957836040517f64a0ae920000000000000000000000000000000000000000000000000000000081526004016112c09190611c3e565b60405180910390fd5b805181602001fd5b63150b7a0260e01b7bffffffffffffffffffffffffffffffffffffffffffffffffffffffff1916817bffffffffffffffffffffffffffffffffffffffffffffffffffffffff19161461135a57836040517f64a0ae920000000000000000000000000000000000000000000000000000000081526004016113519190611c3e565b60405180910390fd5b505b50505050565b600080600090507a184f03e93ff9f4daa797ed6e38ed64bf6a1f01000000000000000083106113c0577a184f03e93ff9f4daa797ed6e38ed64bf6a1f01000000000000000083816113b6576113b5612635565b5b0492506040810190505b6d04ee2d6d415b85acef810000000083106113fd576d04ee2d6d415b85acef810000000083816113f3576113f2612635565b5b0492506020810190505b662386f26fc10000831061142c57662386f26fc10000838161142257611421612635565b5b0492506010810190505b6305f5e1008310611455576305f5e100838161144b5761144a612635565b5b0492506008810190505b612710831061147a5761271083816114705761146f612635565b5b0492506004810190505b6064831061149d576064838161149357611492612635565b5b0492506002810190505b600a83106114ac576001810190505b80915050919050565b6000806114c184610f83565b9050600073ffffffffffffffffffffffffffffffffffffffff168373ffffffffffffffffffffffffffffffffffffffff1614611503576115028184866116cf565b5b600073ffffffffffffffffffffffffffffffffffffffff168173ffffffffffffffffffffffffffffffffffffffff161461159457611545600085600080611793565b6001600360008373ffffffffffffffffffffffffffffffffffffffff1673ffffffffffffffffffffffffffffffffffffffff168152602001908152602001600020600082825403925050819055505b600073ffffffffffffffffffffffffffffffffffffffff168573ffffffffffffffffffffffffffffffffffffffff1614611617576001600360008773ffffffffffffffffffffffffffffffffffffffff1673ffffffffffffffffffffffffffffffffffffffff168152602001908152602001600020600082825401925050819055505b846002600086815260200190815260200160002060006101000a81548173ffffffffffffffffffffffffffffffffffffffff021916908373ffffffffffffffffffffffffffffffffffffffff160217905550838573ffffffffffffffffffffffffffffffffffffffff168273ffffffffffffffffffffffffffffffffffffffff167fddf252ad1be2c89b69c2b068fc378daa952ba7f163c4a11628f55a4df523b3ef60405160405180910390a4809150509392505050565b6116da838383611958565b61178e57600073ffffffffffffffffffffffffffffffffffffffff168373ffffffffffffffffffffffffffffffffffffffff160361174f57806040517f7e2732890000000000000000000000000000000000000000000000000000000081526004016117469190611ee5565b60405180910390fd5b81816040517f177e802f000000000000000000000000000000000000000000000000000000008152600401611785929190612747565b60405180910390fd5b505050565b80806117cc5750600073ffffffffffffffffffffffffffffffffffffffff168273ffffffffffffffffffffffffffffffffffffffff1614155b156119005760006117dc84610c0d565b9050600073ffffffffffffffffffffffffffffffffffffffff168373ffffffffffffffffffffffffffffffffffffffff161415801561184757508273ffffffffffffffffffffffffffffffffffffffff168173ffffffffffffffffffffffffffffffffffffffff1614155b801561185a57506118588184610a11565b155b1561189c57826040517fa9fbf51f0000000000000000000000000000000000000000000000000000000081526004016118939190611c3e565b60405180910390fd5b81156118fe57838573ffffffffffffffffffffffffffffffffffffffff168273ffffffffffffffffffffffffffffffffffffffff167f8c5be1e5ebec7d5bd14f71427d1e84f3dd0314c0f7b2291e5b200ac8c7c3b92560405160405180910390a45b505b836004600085815260200190815260200160002060006101000a81548173ffffffffffffffffffffffffffffffffffffffff021916908373ffffffffffffffffffffffffffffffffffffffff16021790555050505050565b60008073ffffffffffffffffffffffffffffffffffffffff168373ffffffffffffffffffffffffffffffffffffffff1614158015611a1057508273ffffffffffffffffffffffffffffffffffffffff168473ffffffffffffffffffffffffffffffffffffffff1614806119d157506119d08484610a11565b5b80611a0f57508273ffffffffffffffffffffffffffffffffffffffff166119f783610c95565b73ffffffffffffffffffffffffffffffffffffffff16145b5b90509392505050565b6000604051905090565b600080fd5b600080fd5b60007fffffffff0000000000000000000000000000000000000000000000000000000082169050919050565b611a6281611a2d565b8114611a6d57600080fd5b50565b600081359050611a7f81611a59565b92915050565b600060208284031215611a9b57611a9a611a23565b5b6000611aa984828501611a70565b91505092915050565b60008115159050919050565b611ac781611ab2565b82525050565b6000602082019050611ae26000830184611abe565b92915050565b600081519050919050565b600082825260208201905092915050565b60005b83811015611b22578082015181840152602081019050611b07565b60008484015250505050565b6000601f19601f8301169050919050565b6000611b4a82611ae8565b611b548185611af3565b9350611b64818560208601611b04565b611b6d81611b2e565b840191505092915050565b60006020820190508181036000830152611b928184611b3f565b905092915050565b6000819050919050565b611bad81611b9a565b8114611bb857600080fd5b50565b600081359050611bca81611ba4565b92915050565b600060208284031215611be657611be5611a23565b5b6000611bf484828501611bbb565b91505092915050565b600073ffffffffffffffffffffffffffffffffffffffff82169050919050565b6000611c2882611bfd565b9050919050565b611c3881611c1d565b82525050565b6000602082019050611c536000830184611c2f565b92915050565b611c6281611c1d565b8114611c6d57600080fd5b50565b600081359050611c7f81611c59565b92915050565b60008060408385031215611c9c57611c9b611a23565b5b6000611caa85828601611c70565b9250506020611cbb85828601611bbb565b9150509250929050565b600080600060608486031215611cde57611cdd611a23565b5b6000611cec86828701611c70565b9350506020611cfd86828701611c70565b9250506040611d0e86828701611bbb565b9150509250925092565b600080fd5b600080fd5b7f4e487b7100000000000000000000000000000000000000000000000000000000600052604160045260246000fd5b611d5a82611b2e565b810181811067ffffffffffffffff82111715611d7957611d78611d22565b5b80604052505050565b6000611d8c611a19565b9050611d988282611d51565b919050565b600067ffffffffffffffff821115611db857611db7611d22565b5b611dc182611b2e565b9050602081019050919050565b82818337600083830152505050565b6000611df0611deb84611d9d565b611d82565b905082815260208101848484011115611e0c57611e0b611d1d565b5b611e17848285611dce565b509392505050565b600082601f830112611e3457611e33611d18565b5b8135611e44848260208601611ddd565b91505092915050565b60008060408385031215611e6457611e63611a23565b5b6000611e7285828601611c70565b925050602083013567ffffffffffffffff811115611e9357611e92611a28565b5b611e9f85828601611e1f565b9150509250929050565b600060208284031215611ebf57611ebe611a23565b5b6000611ecd84828501611c70565b91505092915050565b611edf81611b9a565b82525050565b6000602082019050611efa6000830184611ed6565b92915050565b611f0981611ab2565b8114611f1457600080fd5b50565b600081359050611f2681611f00565b92915050565b60008060408385031215611f4357611f42611a23565b5b6000611f5185828601611c70565b9250506020611f6285828601611f17565b9150509250929050565b600067ffffffffffffffff821115611f8757611f86611d22565b5b611f9082611b2e565b9050602081019050919050565b6000611fb0611fab84611f6c565b611d82565b905082815260208101848484011115611fcc57611fcb611d1d565b5b611fd7848285611dce565b509392505050565b600082601f830112611ff457611ff3611d18565b5b8135612004848260208601611f9d565b91505092915050565b6000806000806080858703121561202757612026611a23565b5b600061203587828801611c70565b945050602061204687828801611c70565b935050604061205787828801611bbb565b925050606085013567ffffffffffffffff81111561207857612077611a28565b5b61208487828801611fdf565b91505092959194509250565b600080604083850312156120a7576120a6611a23565b5b60006120b585828601611c70565b92505060206120c685828601611c70565b9150509250929050565b7f4e487b7100000000000000000000000000000000000000000000000000000000600052602260045260246000fd5b6000600282049050600182168061211757607f821691505b60208210810361212a576121296120d0565b5b50919050565b7f736f756c626f756e643a20617070726f76616c732064697361626c6564000000600082015250565b6000612166601d83611af3565b915061217182612130565b602082019050919050565b6000602082019050818103600083015261219581612159565b9050919050565b7f736f756c626f756e643a207472616e73666572732064697361626c6564000000600082015250565b60006121d2601d83611af3565b91506121dd8261219c565b602082019050919050565b60006020820190508181036000830152612201816121c5565b9050919050565b7f696e76616c69642073747564656e740000000000000000000000000000000000600082015250565b600061223e600f83611af3565b915061224982612208565b602082019050919050565b6000602082019050818103600083015261226d81612231565b9050919050565b7f73747564656e7420616c72656164792068617320636172640000000000000000600082015250565b60006122aa601883611af3565b91506122b582612274565b602082019050919050565b600060208201905081810360008301526122d98161229d565b9050919050565b7f4e487b7100000000000000000000000000000000000000000000000000000000600052601160045260246000fd5b600061231a82611b9a565b91507fffffffffffffffffffffffffffffffffffffffffffffffffffffffffffffffff820361234c5761234b6122e0565b5b600182019050919050565b600081905092915050565b600061236d82611ae8565b6123778185612357565b9350612387818560208601611b04565b80840191505092915050565b600061239f8285612362565b91506123ab8284612362565b91508190509392505050565b60008190508160005260206000209050919050565b60006020601f8301049050919050565b600082821b905092915050565b6000600883026124197fffffffffffffffffffffffffffffffffffffffffffffffffffffffffffffffff826123dc565b61242386836123dc565b95508019841693508086168417925050509392505050565b6000819050919050565b600061246061245b61245684611b9a565b61243b565b611b9a565b9050919050565b6000819050919050565b61247a83612445565b61248e61248682612467565b8484546123e9565b825550505050565b600090565b6124a3612496565b6124ae818484612471565b505050565b5b818110156124d2576124c760008261249b565b6001810190506124b4565b5050565b601f821115612517576124e8816123b7565b6124f1846123cc565b81016020851015612500578190505b61251461250c856123cc565b8301826124b3565b50505b505050565b600082821c905092915050565b600061253a6000198460080261251c565b1980831691505092915050565b60006125538383612529565b9150826002028217905092915050565b61256c82611ae8565b67ffffffffffffffff81111561258557612584611d22565b5b61258f82546120ff565b61259a8282856124d6565b600060209050601f8311600181146125cd57600084156125bb578287015190505b6125c58582612547565b86555061262d565b601f1984166125db866123b7565b60005b82811015612603578489015182556001820191506020850194506020810190506125de565b86831015612620578489015161261c601f891682612529565b8355505b6001600288020188555050505b505050505050565b7f4e487b7100000000000000000000000000000000000000000000000000000000600052601260045260246000fd5b600081519050919050565b600082825260208201905092915050565b600061268b82612664565b612695818561266f565b93506126a5818560208601611b04565b6126ae81611b2e565b840191505092915050565b60006080820190506126ce6000830187611c2f565b6126db6020830186611c2f565b6126e86040830185611ed6565b81810360608301526126fa8184612680565b905095945050505050565b60008151905061271481611a59565b92915050565b6000602082840312156127305761272f611a23565b5b600061273e84828501612705565b91505092915050565b600060408201905061275c6000830185611c2f565b6127696020830184611ed6565b939250505056fea2646970667358221220b0798b43c1c495ccbd65e90cec6ea4b05b7dd4ae11c14975def353f01d1175e664736f6c63430008180033",
  "linkReferences": {},
  "deployedLinkReferences": {}
}