{
  "_format": "hh-sol-artifact-1",
  "contractName": "GameCharacterCollectionERC1155",
  "sourceName": "contracts/GameCharacterCollectionERC1155.sol",
  "abi": [
    {
      "inputs": [],
      "stateMutability": "nonpayable",
      "type": "constructor"
    },
    {
      "inputs": [
        {
          "internalType": "address",
          "name": "sender",
          "type": "address"
        },
        {
          "internalType": "uint256",
          "name": "balance",
          "type": "uint256"
        },
        {
          "internalType": "uint256",
          "name": "needed",
          "type": "uint256"
        },
        {
          "internalType": "uint256",
          "name": "tokenId",
          "type": "uint256"
        }
      ],
      "name": "ERC1155InsufficientBalance",
      "type": "error"
    },
    {
      "inputs": [
        {
          "internalType": "address",
          "name": "approver",
          "type": "address"
        }
      ],
      "name": "ERC1155InvalidApprover",
      "type": "error"
    },
    {
      "inputs": [
        {
          "internalType": "uint256",
          "name": "idsLength",
          "type": "uint256"
        },
        {
          "internalType": "uint256",
          "name": "valuesLength",
          "type": "uint256"
        }
      ],
      "name": "ERC1155InvalidArrayLength",
      "type": "error"
    },
    {
      "inputs": [
        {
          "internalType": "address",
          "name": "operator",
          "type": "address"
        }
      ],
      "name": "ERC1155InvalidOperator",
      "type": "error"
    },
    {
      "inputs": [
        {
          "internalType": "address",
          "name": "receiver",
          "type": "address"
        }
      ],
      "name": "ERC1155InvalidReceiver",
      "type": "error"
    },
    {
      "inputs": [
        {
          "internalType": "address",
          "name": "sender",
          "type": "address"
        }
      ],
      "name": "ERC1155InvalidSender",
      "type": "error"
    },
    {
      "inputs": [
        {
          "internalType": "address",
          "name": "operator",
          "type": "address"
        },
        {
          "internalType": "address",
          "name": "owner",
          "type": "address"
        }
      ],
      "name": "ERC1155MissingApprovalForAll",
      "type": "error"
    },
    {
      "inputs": [
        {
          "internalType": "address",
          "name": "owner",
          "type": "address"
        }
      ],
      "name": "OwnableInvalidOwner",
      "type": "error"
    },
    {
      "inputs": [
        {
          "internalType": "address",
          "name": "account",
          "type": "address"
        }
      ],
      "name": "OwnableUnauthorizedAccount",
      "type": "error"
    },
    {
      "anonymous": false,
      "inputs": [
        {
          "indexed": true,
          "internalType": "address",
          "name": "account",
          "type": "address"
        },
        {
          "indexed": true,
          "internalType": "address",
          "name": "operator",
          "type": "address"
        },
        {
          "indexed": false,
          "internalType": "bool",
          "name": "approved",
          "type": "bool"
        }
      ],
      "name": "ApprovalForAll",
      "type": "event"
    },
    {
      "anonymous": false,
      "inputs": [
        {
          "indexed": true,
          "internalType": "address",
          "name": "previousOwner",
          "type": "address"
        },
        {
          "indexed": true,
          "internalType": "address",
          "name": "newOwner",
          "type": "address"
        }
      ],
      "name": "OwnershipTransferred",
      "type": "event"
    },
    {
      "anonymous": false,
      "inputs": [
        {
          "indexed": true,
          "internalType": "address",
          "name": "operator",
          "type": "address"
        },
        {
          "indexed": true,
          "internalType": "address",
          "name": "from",
          "type": "address"
        },
        {
          "indexed": true,
          "internalType": "address",
          "name": "to",
          "type": "address"
        },
        {
          "indexed": false,
          "internalType": "uint256[]",
          "name": "ids",
          "type": "uint256[]"
        },
        {
          "indexed": false,
          "internalType": "uint256[]",
          "name": "values",
          "type": "uint256[]"
        }
      ],
      "name": "TransferBatch",
      "type": "event"
    },
    {
      "anonymous": false,
      "inputs": [
        {
          "indexed": true,
          "internalType": "address",
          "name": "operator",
          "type": "address"
        },
        {
          "indexed": true,
          "internalType": "address",
          "name": "from",
          "type": "address"
        },
        {
          "indexed": true,
          "internalType": "address",
          "name": "to",
          "type": "address"
        },
        {
          "indexed": false,
          "internalType": "uint256",
          "name": "id",
          "type": "uint256"
        },
        {
          "indexed": false,
          "internalType": "uint256",
          "name": "value",
          "type": "uint256"
        }
      ],
      "name": "TransferSingle",
      "type": "event"
    },
    {
      "anonymous": false,
      "inputs": [
        {
          "indexed": false,
          "internalType": "string",
          "name": "value",
          "type": "string"
        },
        {
          "indexed": true,
          "internalType": "uint256",
          "name": "id",
          "type": "uint256"
        }
      ],
      "name": "URI",
      "type": "event"
    },
    {
      "inputs": [],
      "name": "CHARACTER_COUNT",
      "outputs": [
        {
          "internalType": "uint256",
          "name": "",
          "type": "uint256"
        }
      ],
      "stateMutability": "view",
      "type": "function"
    },
    {
      "inputs": [
        {
          "internalType": "address",
          "name": "account",
          "type": "address"
        },
        {
          "internalType": "uint256",
          "name": "id",
          "type": "uint256"
        }
      ],
      "name": "balanceOf",
      "outputs": [
        {
          "internalType": "uint256",
          "name": "",
          "type": "uint256"
        }
      ],
      "stateMutability": "view",
      "type": "function"
    },
    {
      "inputs": [
        {
          "internalType": "address[]",
          "name": "accounts",
          "type": "address[]"
        },
        {
          "internalType": "uint256[]",
          "name": "ids",
          "type": "uint256[]"
        }
      ],
      "name": "balanceOfBatch",
      "outputs": [
        {
          "internalType": "uint256[]",
          "name": "",
          "type": "uint256[]"
        }
      ],
      "stateMutability": "view",
      "type": "function"
    },
    {
      "inputs": [
        {
          "internalType": "address",
          "name": "account",
          "type": "address"
        },
        {
          "internalType": "address",
          "name": "operator",
          "type": "address"
        }
      ],
      "name": "isApprovedForAll",
      "outputs": [
        {
          "internalType": "bool",
          "name": "",
          "type": "bool"
        }
      ],
      "stateMutability": "view",
      "type": "function"
    },
    {
      "inputs": [
        {
          "internalType": "address",
          "name": "to",
          "type": "address"
        },
        {
          "internalType": "uint256",
          "name": "id",
          "type": "uint256"
        },
        {
          "internalType": "uint256",
          "name": "amount",
          "type": "uint256"
        },
        {
          "internalType": "bytes",
          "name": "data",
          "type": "bytes"
        }
      ],
      "name": "mint",
      "outputs": [],
      "stateMutability": "nonpayable",
      "type": "function"
    },
    {
      "inputs": [
        {
          "internalType": "address",
          "name": "to",
          "type": "address"
        },
        {
          "internalType": "uint256[]",
          "name": "ids",
          "type": "uint256[]"
        },
        {
          "internalType": "uint256[]",
          "name": "amounts",
          "type": "uint256[]"
        },
        {
          "internalType": "bytes",
          "name": "data",
          "type": "bytes"
        }
      ],
      "name": "mintBatch",
      "outputs": [],
      "stateMutability": "nonpayable",
      "type": "function"
    },
    {
      "inputs": [],
      "name": "owner",
      "outputs": [
        {
          "internalType": "address",
          "name": "",
          "type": "address"
        }
      ],
      "stateMutability": "view",
      "type": "function"
    },
    {
      "inputs": [],
      "name": "renounceOwnership",
      "outputs": [],
      "stateMutability": "nonpayable",
      "type": "function"
    },
    {
      "inputs": [
        {
          "internalType": "address",
          "name": "from",
          "type": "address"
        },
        {
          "internalType": "address",
          "name": "to",
          "type": "address"
        },
        {
          "internalType": "uint256[]",
          "name": "ids",
          "type": "uint256[]"
        },
        {
          "internalType": "uint256[]",
          "name": "values",
          "type": "uint256[]"
        },
        {
          "internalType": "bytes",
          "name": "data",
          "type": "bytes"
        }
      ],
      "name": "safeBatchTransferFrom",
      "outputs": [],
      "stateMutability": "nonpayable",
      "type": "function"
    },
    {
      "inputs": [
        {
          "internalType": "address",
          "name": "from",
          "type": "address"
        },
        {
          "internalType": "address",
          "name": "to",
          "type": "address"
        },
        {
          "internalType": "uint256",
          "name": "id",
          "type": "uint256"
        },
        {
          "internalType": "uint256",
          "name": "value",
          "type": "uint256"
        },
        {
          "internalType": "bytes",
          "name": "data",
          "type": "bytes"
        }
      ],
      "name": "safeTransferFrom",
      "outputs": [],
      "stateMutability": "nonpayable",
      "type": "function"
    },
    {
      "inputs": [
        {
          "internalType": "address",
          "name": "operator",
          "type": "address"
        },
        {
          "internalType": "bool",
          "name": "approved",
          "type": "bool"
        }
      ],
      "name": "setApprovalForAll",
      "outputs": [],
      "stateMutability": "nonpayable",
      "type": "function"
    },
    {
      "inputs": [
        {
          "internalType": "uint256",
          "name": "id",
          "type": "uint256"
        },
        {
          "internalType": "string",
          "name": "tokenUri",
          "type": "string"
        }
      ],
      "name": "setTokenUri",
      "outputs": [],
      "stateMutability": "nonpayable",
      "type": "function"
    },
    {
      "inputs": [
        {
          "internalType": "bytes4",
          "name": "interfaceId",
          "type": "bytes4"
        }
      ],
      "name": "supportsInterface",
      "outputs": [
        {
          "internalType": "bool",
          "name": "",
          "type": "bool"
        }
      ],
      "stateMutability": "view",
      "type": "function"
    },
    {
      "inputs": [
        {
          "internalType": "address",
          "name": "newOwner",
          "type": "address"
        }
      ],
      "name": "transferOwnership",
      "outputs": [],
      "stateMutability": "nonpayable",
      "type": "function"
    },
    {
      "inputs": [
        {
          "internalType": "uint256",
          "name": "id",
          "type": "uint256"
        }
      ],
      "name": "uri",
      "outputs": [
        {
          "internalType": "string",
          "name": "",
          "type": "string"
        }
      ],
      "stateMutability": "view",
      "type": "function"
    }
  ],
  "bytecode": "0x60806040523480156200001157600080fd5b5033604051806020016040528060008152506200003481620000c260201b60201c565b50600073ffffffffffffffffffffffffffffffffffffffff168173ffffffffffffffffffffffffffffffffffffffff1603620000aa5760006040517f1e4fbdf7000000000000000000000000000000000000000000000000000000008152600401620000a19190620001e2565b60405180910390fd5b620000bb81620000d760201b60201c565b5062000560565b8060029081620000d3919062000479565b5050565b6000600360009054906101000a900473ffffffffffffffffffffffffffffffffffffffff16905081600360006101000a81548173ffffffffffffffffffffffffffffffffffffffff021916908373ffffffffffffffffffffffffffffffffffffffff1602179055508173ffffffffffffffffffffffffffffffffffffffff168173ffffffffffffffffffffffffffffffffffffffff167f8be0079c531659141344cd1fd0a4f28419497f9722a3daafe3b4186f6b6457e060405160405180910390a35050565b600073ffffffffffffffffffffffffffffffffffffffff82169050919050565b6000620001ca826200019d565b9050919050565b620001dc81620001bd565b82525050565b6000602082019050620001f96000830184620001d1565b92915050565b600081519050919050565b7f4e487b7100000000000000000000000000000000000000000000000000000000600052604160045260246000fd5b7f4e487b7100000000000000000000000000000000000000000000000000000000600052602260045260246000fd5b600060028204905060018216806200028157607f821691505b60208210810362000297576200029662000239565b5b50919050565b60008190508160005260206000209050919050565b60006020601f8301049050919050565b600082821b905092915050565b600060088302620003017fffffffffffffffffffffffffffffffffffffffffffffffffffffffffffffffff82620002c2565b6200030d8683620002c2565b95508019841693508086168417925050509392505050565b6000819050919050565b6000819050919050565b60006200035a620003546200034e8462000325565b6200032f565b62000325565b9050919050565b6000819050919050565b620003768362000339565b6200038e620003858262000361565b848454620002cf565b825550505050565b600090565b620003a562000396565b620003b28184846200036b565b505050565b5b81811015620003da57620003ce6000826200039b565b600181019050620003b8565b5050565b601f8211156200042957620003f3816200029d565b620003fe84620002b2565b810160208510156200040e578190505b620004266200041d85620002b2565b830182620003b7565b50505b505050565b600082821c905092915050565b60006200044e600019846008026200042e565b1980831691505092915050565b60006200046983836200043b565b9150826002028217905092915050565b6200048482620001ff565b67ffffffffffffffff811115620004a0576200049f6200020a565b5b620004ac825462000268565b620004b9828285620003de565b600060209050601f831160018114620004f15760008415620004dc578287015190505b620004e885826200045b565b86555062000558565b601f19841662000501866200029d565b60005b828110156200052b5784890151825560018201915060208501945060208101905062000504565b868310156200054b578489015162000547601f8916826200043b565b8355505b6001600288020188555050505b505050505050565b612a9f80620005706000396000f3fe608060405234801561001057600080fd5b50600436106100f45760003560e01c806357f7789e11610097578063a22cb46511610066578063a22cb4651461026f578063e985e9c51461028b578063f242432a146102bb578063f2fde38b146102d7576100f4565b806357f7789e1461020f578063715018a61461022b578063731133e9146102355780638da5cb5b14610251576100f4565b80631f7fdffa116100d35780631f7fdffa146101895780632eb2c2d6146101a55780633a22a27d146101c15780634e1273f4146101df576100f4565b8062fdd58e146100f957806301ffc9a7146101295780630e89341c14610159575b600080fd5b610113600480360381019061010e91906119a6565b6102f3565b60405161012091906119f5565b60405180910390f35b610143600480360381019061013e9190611a68565b61034d565b6040516101509190611ab0565b60405180910390f35b610173600480360381019061016e9190611acb565b61042f565b6040516101809190611b88565b60405180910390f35b6101a3600480360381019061019e9190611da7565b610525565b005b6101bf60048036038101906101ba9190611e62565b6105de565b005b6101c9610686565b6040516101d691906119f5565b60405180910390f35b6101f960048036038101906101f49190611ff4565b61068b565b604051610206919061212a565b60405180910390f35b610229600480360381019061022491906121ed565b610794565b005b610233610812565b005b61024f600480360381019061024a9190612249565b610826565b005b610259610891565b60405161026691906122db565b60405180910390f35b61028960048036038101906102849190612322565b6108bb565b005b6102a560048036038101906102a09190612362565b6108d1565b6040516102b29190611ab0565b60405180910390f35b6102d560048036038101906102d091906123a2565b610965565b005b6102f160048036038101906102ec9190612439565b610a0d565b005b600080600083815260200190815260200160002060008473ffffffffffffffffffffffffffffffffffffffff1673ffffffffffffffffffffffffffffffffffffffff16815260200190815260200160002054905092915050565b60007fd9b67a26000000000000000000000000000000000000000000000000000000007bffffffffffffffffffffffffffffffffffffffffffffffffffffffff1916827bffffffffffffffffffffffffffffffffffffffffffffffffffffffff1916148061041857507f0e89341c000000000000000000000000000000000000000000000000000000007bffffffffffffffffffffffffffffffffffffffffffffffffffffffff1916827bffffffffffffffffffffffffffffffffffffffffffffffffffffffff1916145b80610428575061042782610a93565b5b9050919050565b6060600182101580156104435750600a8211155b610482576040517f08c379a0000000000000000000000000000000000000000000000000000000008152600401610479906124b2565b60405180910390fd5b6004600083815260200190815260200160002080546104a090612501565b80601f01602080910402602001604051908101604052809291908181526020018280546104cc90612501565b80156105195780601f106104ee57610100808354040283529160200191610519565b820191906000526020600020905b8154815290600101906020018083116104fc57829003601f168201915b50505050509050919050565b61052d610afd565b60005b83518110156105cb57600184828151811061054e5761054d612532565b5b60200260200101511015801561057f5750600a84828151811061057457610573612532565b5b602002602001015111155b6105be576040517f08c379a00000000000000000000000000000000000000000000000000000000081526004016105b5906124b2565b60405180910390fd5b8080600101915050610530565b506105d884848484610b84565b50505050565b60006105e8610c0a565b90508073ffffffffffffffffffffffffffffffffffffffff168673ffffffffffffffffffffffffffffffffffffffff161415801561062d575061062b86826108d1565b155b156106715780866040517fe237d922000000000000000000000000000000000000000000000000000000008152600401610668929190612561565b60405180910390fd5b61067e8686868686610c12565b505050505050565b600a81565b606081518351146106d757815183516040517f5b0599910000000000000000000000000000000000000000000000000000000081526004016106ce92919061258a565b60405180910390fd5b6000835167ffffffffffffffff8111156106f4576106f3611baf565b5b6040519080825280602002602001820160405280156107225781602001602082028036833780820191505090505b50905060005b84518110156107895761075f6107478287610d0a90919063ffffffff16565b61075a8387610d1e90919063ffffffff16565b6102f3565b82828151811061077257610771612532565b5b602002602001018181525050806001019050610728565b508091505092915050565b61079c610afd565b600182101580156107ae5750600a8211155b6107ed576040517f08c379a00000000000000000000000000000000000000000000000000000000081526004016107e4906124b2565b60405180910390fd5b8060046000848152602001908152602001600020908161080d919061275f565b505050565b61081a610afd565b6108246000610d32565b565b61082e610afd565b600183101580156108405750600a8311155b61087f576040517f08c379a0000000000000000000000000000000000000000000000000000000008152600401610876906124b2565b60405180910390fd5b61088b84848484610df8565b50505050565b6000600360009054906101000a900473ffffffffffffffffffffffffffffffffffffffff16905090565b6108cd6108c6610c0a565b8383610e91565b5050565b6000600160008473ffffffffffffffffffffffffffffffffffffffff1673ffffffffffffffffffffffffffffffffffffffff16815260200190815260200160002060008373ffffffffffffffffffffffffffffffffffffffff1673ffffffffffffffffffffffffffffffffffffffff16815260200190815260200160002060009054906101000a900460ff16905092915050565b600061096f610c0a565b90508073ffffffffffffffffffffffffffffffffffffffff168673ffffffffffffffffffffffffffffffffffffffff16141580156109b457506109b286826108d1565b155b156109f85780866040517fe237d9220000000000000000000000000000000000000000000000000000000081526004016109ef929190612561565b60405180910390fd5b610a058686868686611001565b505050505050565b610a15610afd565b600073ffffffffffffffffffffffffffffffffffffffff168173ffffffffffffffffffffffffffffffffffffffff1603610a875760006040517f1e4fbdf7000000000000000000000000000000000000000000000000000000008152600401610a7e91906122db565b60405180910390fd5b610a9081610d32565b50565b60007f01ffc9a7000000000000000000000000000000000000000000000000000000007bffffffffffffffffffffffffffffffffffffffffffffffffffffffff1916827bffffffffffffffffffffffffffffffffffffffffffffffffffffffff1916149050919050565b610b05610c0a565b73ffffffffffffffffffffffffffffffffffffffff16610b23610891565b73ffffffffffffffffffffffffffffffffffffffff1614610b8257610b46610c0a565b6040517f118cdaa7000000000000000000000000000000000000000000000000000000008152600401610b7991906122db565b60405180910390fd5b565b600073ffffffffffffffffffffffffffffffffffffffff168473ffffffffffffffffffffffffffffffffffffffff1603610bf65760006040517f57f447ce000000000000000000000000000000000000000000000000000000008152600401610bed91906122db565b60405180910390fd5b610c0460008585858561110c565b50505050565b600033905090565b600073ffffffffffffffffffffffffffffffffffffffff168473ffffffffffffffffffffffffffffffffffffffff1603610c845760006040517f57f447ce000000000000000000000000000000000000000000000000000000008152600401610c7b91906122db565b60405180910390fd5b600073ffffffffffffffffffffffffffffffffffffffff168573ffffffffffffffffffffffffffffffffffffffff1603610cf65760006040517f01a83514000000000000000000000000000000000000000000000000000000008152600401610ced91906122db565b60405180910390fd5b610d03858585858561110c565b5050505050565b600060208202602084010151905092915050565b600060208202602084010151905092915050565b6000600360009054906101000a900473ffffffffffffffffffffffffffffffffffffffff16905081600360006101000a81548173ffffffffffffffffffffffffffffffffffffffff021916908373ffffffffffffffffffffffffffffffffffffffff1602179055508173ffffffffffffffffffffffffffffffffffffffff168173ffffffffffffffffffffffffffffffffffffffff167f8be0079c531659141344cd1fd0a4f28419497f9722a3daafe3b4186f6b6457e060405160405180910390a35050565b600073ffffffffffffffffffffffffffffffffffffffff168473ffffffffffffffffffffffffffffffffffffffff1603610e6a5760006040517f57f447ce000000000000000000000000000000000000000000000000000000008152600401610e6191906122db565b60405180910390fd5b600080610e7785856111be565b91509150610e8960008784848761110c565b505050505050565b600073ffffffffffffffffffffffffffffffffffffffff168273ffffffffffffffffffffffffffffffffffffffff1603610f035760006040517fced3e100000000000000000000000000000000000000000000000000000000008152600401610efa91906122db565b60405180910390fd5b80600160008573ffffffffffffffffffffffffffffffffffffffff1673ffffffffffffffffffffffffffffffffffffffff16815260200190815260200160002060008473ffffffffffffffffffffffffffffffffffffffff1673ffffffffffffffffffffffffffffffffffffffff16815260200190815260200160002060006101000a81548160ff0219169083151502179055508173ffffffffffffffffffffffffffffffffffffffff168373ffffffffffffffffffffffffffffffffffffffff167f17307eab39ab6107e8899845ad3d59bd9653f200f220920489ca2b5937696c3183604051610ff49190611ab0565b60405180910390a3505050565b600073ffffffffffffffffffffffffffffffffffffffff168473ffffffffffffffffffffffffffffffffffffffff16036110735760006040517f57f447ce00000000000000000000000000000000000000000000000000000000815260040161106a91906122db565b60405180910390fd5b600073ffffffffffffffffffffffffffffffffffffffff168573ffffffffffffffffffffffffffffffffffffffff16036110e55760006040517f01a835140000000000000000000000000000000000000000000000000000000081526004016110dc91906122db565b60405180910390fd5b6000806110f285856111be565b91509150611103878784848761110c565b50505050505050565b611118858585856111ee565b600073ffffffffffffffffffffffffffffffffffffffff168473ffffffffffffffffffffffffffffffffffffffff16146111b7576000611156610c0a565b905060018451036111a6576000611177600086610d1e90919063ffffffff16565b9050600061118f600086610d1e90919063ffffffff16565b905061119f838989858589611596565b50506111b5565b6111b481878787878761174a565b5b505b5050505050565b60608060405191506001825283602083015260408201905060018152826020820152604081016040529250929050565b805182511461123857815181516040517f5b05999100000000000000000000000000000000000000000000000000000000815260040161122f92919061258a565b60405180910390fd5b6000611242610c0a565b905060005b83518110156114515760006112658286610d1e90919063ffffffff16565b9050600061127c8386610d1e90919063ffffffff16565b9050600073ffffffffffffffffffffffffffffffffffffffff168873ffffffffffffffffffffffffffffffffffffffff16146113a957600080600084815260200190815260200160002060008a73ffffffffffffffffffffffffffffffffffffffff1673ffffffffffffffffffffffffffffffffffffffff1681526020019081526020016000205490508181101561135157888183856040517f03dee4c50000000000000000000000000000000000000000000000000000000081526004016113489493929190612831565b60405180910390fd5b81810360008085815260200190815260200160002060008b73ffffffffffffffffffffffffffffffffffffffff1673ffffffffffffffffffffffffffffffffffffffff16815260200190815260200160002081905550505b600073ffffffffffffffffffffffffffffffffffffffff168773ffffffffffffffffffffffffffffffffffffffff1614611444578060008084815260200190815260200160002060008973ffffffffffffffffffffffffffffffffffffffff1673ffffffffffffffffffffffffffffffffffffffff168152602001908152602001600020600082825461143c91906128a5565b925050819055505b5050806001019050611247565b506001835103611510576000611471600085610d1e90919063ffffffff16565b90506000611489600085610d1e90919063ffffffff16565b90508573ffffffffffffffffffffffffffffffffffffffff168773ffffffffffffffffffffffffffffffffffffffff168473ffffffffffffffffffffffffffffffffffffffff167fc3d58168c5ae7397731d063d5bbf3d657854427343f4c083240f7aacaa2d0f62858560405161150192919061258a565b60405180910390a4505061158f565b8373ffffffffffffffffffffffffffffffffffffffff168573ffffffffffffffffffffffffffffffffffffffff168273ffffffffffffffffffffffffffffffffffffffff167f4a39dc06d4c0dbc64b70af90fd698a233a518aa5d07e595d983b8c0526c8f7fb86866040516115869291906128d9565b60405180910390a45b5050505050565b60008473ffffffffffffffffffffffffffffffffffffffff163b1115611742578373ffffffffffffffffffffffffffffffffffffffff1663f23a6e6187878686866040518663ffffffff1660e01b81526004016115f7959493929190612965565b6020604051808303816000875af192505050801561163357506040513d601f19601f8201168201806040525081019061163091906129d4565b60015b6116b7573d8060008114611663576040519150601f19603f3d011682016040523d82523d6000602084013e611668565b606091505b5060008151036116af57846040517f57f447ce0000000000000000000000000000000000000000000000000000000081526004016116a691906122db565b60405180910390fd5b805181602001fd5b63f23a6e6160e01b7bffffffffffffffffffffffffffffffffffffffffffffffffffffffff1916817bffffffffffffffffffffffffffffffffffffffffffffffffffffffff19161461174057846040517f57f447ce00000000000000000000000000000000000000000000000000000000815260040161173791906122db565b60405180910390fd5b505b505050505050565b60008473ffffffffffffffffffffffffffffffffffffffff163b11156118f6578373ffffffffffffffffffffffffffffffffffffffff1663bc197c8187878686866040518663ffffffff1660e01b81526004016117ab959493929190612a01565b6020604051808303816000875af19250505080156117e757506040513d601f19601f820116820180604052508101906117e491906129d4565b60015b61186b573d8060008114611817576040519150601f19603f3d011682016040523d82523d6000602084013e61181c565b606091505b50600081510361186357846040517f57f447ce00000000000000000000000000000000000000000000000000000000815260040161185a91906122db565b60405180910390fd5b805181602001fd5b63bc197c8160e01b7bffffffffffffffffffffffffffffffffffffffffffffffffffffffff1916817bffffffffffffffffffffffffffffffffffffffffffffffffffffffff1916146118f457846040517f57f447ce0000000000000000000000000000000000000000000000000000000081526004016118eb91906122db565b60405180910390fd5b505b505050505050565b6000604051905090565b600080fd5b600080fd5b600073ffffffffffffffffffffffffffffffffffffffff82169050919050565b600061193d82611912565b9050919050565b61194d81611932565b811461195857600080fd5b50565b60008135905061196a81611944565b92915050565b6000819050919050565b61198381611970565b811461198e57600080fd5b50565b6000813590506119a08161197a565b92915050565b600080604083850312156119bd576119bc611908565b5b60006119cb8582860161195b565b92505060206119dc85828601611991565b9150509250929050565b6119ef81611970565b82525050565b6000602082019050611a0a60008301846119e6565b92915050565b60007fffffffff0000000000000000000000000000000000000000000000000000000082169050919050565b611a4581611a10565b8114611a5057600080fd5b50565b600081359050611a6281611a3c565b92915050565b600060208284031215611a7e57611a7d611908565b5b6000611a8c84828501611a53565b91505092915050565b60008115159050919050565b611aaa81611a95565b82525050565b6000602082019050611ac56000830184611aa1565b92915050565b600060208284031215611ae157611ae0611908565b5b6000611aef84828501611991565b91505092915050565b600081519050919050565b600082825260208201905092915050565b60005b83811015611b32578082015181840152602081019050611b17565b60008484015250505050565b6000601f19601f8301169050919050565b6000611b5a82611af8565b611b648185611b03565b9350611b74818560208601611b14565b611b7d81611b3e565b840191505092915050565b60006020820190508181036000830152611ba28184611b4f565b905092915050565b600080fd5b7f4e487b7100000000000000000000000000000000000000000000000000000000600052604160045260246000fd5b611be782611b3e565b810181811067ffffffffffffffff82111715611c0657611c05611baf565b5b80604052505050565b6000611c196118fe565b9050611c258282611bde565b919050565b600067ffffffffffffffff821115611c4557611c44611baf565b5b602082029050602081019050919050565b600080fd5b6000611c6e611c6984611c2a565b611c0f565b90508083825260208201905060208402830185811115611c9157611c90611c56565b5b835b81811015611cba5780611ca68882611991565b845260208401935050602081019050611c93565b5050509392505050565b600082601f830112611cd957611cd8611baa565b5b8135611ce9848260208601611c5b565b91505092915050565b600080fd5b600067ffffffffffffffff821115611d1257611d11611baf565b5b611d1b82611b3e565b9050602081019050919050565b82818337600083830152505050565b6000611d4a611d4584611cf7565b611c0f565b905082815260208101848484011115611d6657611d65611cf2565b5b611d71848285611d28565b509392505050565b600082601f830112611d8e57611d8d611baa565b5b8135611d9e848260208601611d37565b91505092915050565b60008060008060808587031215611dc157611dc0611908565b5b6000611dcf8782880161195b565b945050602085013567ffffffffffffffff811115611df057611def61190d565b5b611dfc87828801611cc4565b935050604085013567ffffffffffffffff811115611e1d57611e1c61190d565b5b611e2987828801611cc4565b925050606085013567ffffffffffffffff811115611e4a57611e4961190d565b5b611e5687828801611d79565b91505092959194509250565b600080600080600060a08688031215611e7e57611e7d611908565b5b6000611e8c8882890161195b565b9550506020611e9d8882890161195b565b945050604086013567ffffffffffffffff811115611ebe57611ebd61190d565b5b611eca88828901611cc4565b935050606086013567ffffffffffffffff811115611eeb57611eea61190d565b5b611ef788828901611cc4565b925050608086013567ffffffffffffffff811115611f1857611f1761190d565b5b611f2488828901611d79565b9150509295509295909350565b600067ffffffffffffffff821115611f4c57611f4b611baf565b5b602082029050602081019050919050565b6000611f70611f6b84611f31565b611c0f565b90508083825260208201905060208402830185811115611f9357611f92611c56565b5b835b81811015611fbc5780611fa8888261195b565b845260208401935050602081019050611f95565b5050509392505050565b600082601f830112611fdb57611fda611baa565b5b8135611feb848260208601611f5d565b91505092915050565b6000806040838503121561200b5761200a611908565b5b600083013567ffffffffffffffff8111156120295761202861190d565b5b61203585828601611fc6565b925050602083013567ffffffffffffffff8111156120565761205561190d565b5b61206285828601611cc4565b9150509250929050565b600081519050919050565b600082825260208201905092915050565b6000819050602082019050919050565b6120a181611970565b82525050565b60006120b38383612098565b60208301905092915050565b6000602082019050919050565b60006120d78261206c565b6120e18185612077565b93506120ec83612088565b8060005b8381101561211d57815161210488826120a7565b975061210f836120bf565b9250506001810190506120f0565b5085935050505092915050565b6000602082019050818103600083015261214481846120cc565b905092915050565b600067ffffffffffffffff82111561216757612166611baf565b5b61217082611b3e565b9050602081019050919050565b600061219061218b8461214c565b611c0f565b9050828152602081018484840111156121ac576121ab611cf2565b5b6121b7848285611d28565b509392505050565b600082601f8301126121d4576121d3611baa565b5b81356121e484826020860161217d565b91505092915050565b6000806040838503121561220457612203611908565b5b600061221285828601611991565b925050602083013567ffffffffffffffff8111156122335761223261190d565b5b61223f858286016121bf565b9150509250929050565b6000806000806080858703121561226357612262611908565b5b60006122718782880161195b565b945050602061228287828801611991565b935050604061229387828801611991565b925050606085013567ffffffffffffffff8111156122b4576122b361190d565b5b6122c087828801611d79565b91505092959194509250565b6122d581611932565b82525050565b60006020820190506122f060008301846122cc565b92915050565b6122ff81611a95565b811461230a57600080fd5b50565b60008135905061231c816122f6565b92915050565b6000806040838503121561233957612338611908565b5b60006123478582860161195b565b92505060206123588582860161230d565b9150509250929050565b6000806040838503121561237957612378611908565b5b60006123878582860161195b565b92505060206123988582860161195b565b9150509250929050565b600080600080600060a086880312156123be576123bd611908565b5b60006123cc8882890161195b565b95505060206123dd8882890161195b565b94505060406123ee88828901611991565b93505060606123ff88828901611991565b925050608086013567ffffffffffffffff8111156124205761241f61190d565b5b61242c88828901611d79565b9150509295509295909350565b60006020828403121561244f5761244e611908565b5b600061245d8482850161195b565b91505092915050565b7f696e76616c696420746f6b656e20696400000000000000000000000000000000600082015250565b600061249c601083611b03565b91506124a782612466565b602082019050919050565b600060208201905081810360008301526124cb8161248f565b9050919050565b7f4e487b7100000000000000000000000000000000000000000000000000000000600052602260045260246000fd5b6000600282049050600182168061251957607f821691505b60208210810361252c5761252b6124d2565b5b50919050565b7f4e487b7100000000000000000000000000000000000000000000000000000000600052603260045260246000fd5b600060408201905061257660008301856122cc565b61258360208301846122cc565b9392505050565b600060408201905061259f60008301856119e6565b6125ac60208301846119e6565b9392505050565b60008190508160005260206000209050919050565b60006020601f8301049050919050565b600082821b905092915050565b6000600883026126157fffffffffffffffffffffffffffffffffffffffffffffffffffffffffffffffff826125d8565b61261f86836125d8565b95508019841693508086168417925050509392505050565b6000819050919050565b600061265c61265761265284611970565b612637565b611970565b9050919050565b6000819050919050565b61267683612641565b61268a61268282612663565b8484546125e5565b825550505050565b600090565b61269f612692565b6126aa81848461266d565b505050565b5b818110156126ce576126c3600082612697565b6001810190506126b0565b5050565b601f821115612713576126e4816125b3565b6126ed846125c8565b810160208510156126fc578190505b612710612708856125c8565b8301826126af565b50505b505050565b600082821c905092915050565b600061273660001984600802612718565b1980831691505092915050565b600061274f8383612725565b9150826002028217905092915050565b61276882611af8565b67ffffffffffffffff81111561278157612780611baf565b5b61278b8254612501565b6127968282856126d2565b600060209050601f8311600181146127c957600084156127b7578287015190505b6127c18582612743565b865550612829565b601f1984166127d7866125b3565b60005b828110156127ff578489015182556001820191506020850194506020810190506127da565b8683101561281c5784890151612818601f891682612725565b8355505b6001600288020188555050505b505050505050565b600060808201905061284660008301876122cc565b61285360208301866119e6565b61286060408301856119e6565b61286d60608301846119e6565b95945050505050565b7f4e487b7100000000000000000000000000000000000000000000000000000000600052601160045260246000fd5b60006128b082611970565b91506128bb83611970565b92508282019050808211156128d3576128d2612876565b5b92915050565b600060408201905081810360008301526128f381856120cc565b9050818103602083015261290781846120cc565b90509392505050565b600081519050919050565b600082825260208201905092915050565b600061293782612910565b612941818561291b565b9350612951818560208601611b14565b61295a81611b3e565b840191505092915050565b600060a08201905061297a60008301886122cc565b61298760208301876122cc565b61299460408301866119e6565b6129a160608301856119e6565b81810360808301526129b3818461292c565b90509695505050505050565b6000815190506129ce81611a3c565b92915050565b6000602082840312156129ea576129e9611908565b5b60006129f8848285016129bf565b91505092915050565b600060a082019050612a1660008301886122cc565b612a2360208301876122cc565b8181036040830152612a3581866120cc565b90508181036060830152612a4981856120cc565b90508181036080830152612a5d818461292c565b9050969550505050505056fea264697066735822122001e8a7fa855564d3bd7207fa7c182e40d1e048dedae8e55bba672c0edf4a450f64736f6c63430008180033",
  "linkReferences": {},
  "deployedLinkReferences": {}
}